:0803DC00C101C103C104C1000D
:0300230002035B7A
:09035B00C0E0C0D075D000C0075D
:10036400309904C299C20230981BC298AF99EF2405
:10037400A7600C24EF600C2412700AD2038006D20A
:05038400048002D2001C
:07038900D007D0D0D0E03214
:0300030002001CDC
:01001C0032B1
:10039000759850E4F589758BE8758DFFD28E758E52
:0403A00040C2022233
:0803E5002002FDD2028F9922D3
:1003A40043BA8090FEA8743FF053BA7F75DE2F7570
:0303B400BC8F22D9
:1000060043BC400000E5BC30E5FB53BCDFAFBDEFB1
:05001600FEADBEEDFF90
:01001B0022C2
:10029E00120006120006E4F50CF50DFBFA1200062C
:1002AE00EF250DF50DEE350CF50C0BBB00010AEB31
:1002BE0064084A70E8AE0CE50D7803CEA2E713CEC3
:1002CE0013D8F8F50D8E0CAB08AA09A90A12002650
:1002DE00FFAEF0EE3395E0FDFCE4FB7A04F9F81284
:1002EE000051C006C007AE0CAF0DAB07AA06EA332D
:1002FE0095E0F9F8D007D006120317AD07AC06EC5F
:09030E00FF1203E5AF050203E54F
:0A03D10000007F487ECDDEFEDFFC59
:0103DB0022FF
:0C03B7007F037ECF7D1CDDFEDEFCDFFA44
:0103C3002217
:0C03C4007F397E1B7D70DDFEDEFCDFFA61
:0103D000220A
:10016E00E4F50BC2B3D2CC75B20375B103F5CAF583
:10017E00C9F508F509750AEFD288D2A8D2AF800B5F
:10018E00C2001203C41203C41203C4C2ACC28EE472
:10019E00F5BCC2B31203B730B20700007587020078
:1001AE0000E4F50B20B20A1203D1050BE50BB4B433
:1001BE00F3E50BB4B4D5D2B31203A4120390D2ACB0
:1001CE00E4F50B2000BA300305C20312029E300480
:1001DE000EC20430CC04E4FF80027F011203E5203E
:1001EE00B2E1E4F50B20B2151203B7050B20009017
:1001FE00300305C20312029EE50BB4BEE8E50BB454
:04020E00BEC1808766
:03000000020212E7
:0C021200787FE4F6D8FD758120020259C7
:10002600BB010A89828A83E0F5F0A3E022500687A5
:10003600F009E71922BBFE07E3F5F009E319228967
:0B004600828A83E493F5F0740193229A
:10005100E88FF0A4CC8BF0A42CFCE98EF0A42CFC4E
:100061008AF0EDA42CFCEA8EF0A4CDA8F08BF0A4CC
:100071002DCC3825F0FDE98FF0A42CCD35F0FCEB2B
:100081008EF0A4FEA9F0EB8FF0A4CFC5F02ECD39F0
:0F009100FEE43CFCEAA42DCE35F0FDE43CFC225D
:10031700C2D5E830E70FB2D5E4C39BFBE49AFAE411
:1003270099F9E498F8EC30E717B2D512034D1200AB
:10033700DCE4C39BFBE49AFAE499F9E498F88003B8
:100347001200DC30D50DE4C39FFFE49EFEE49DFD63
:04035700E49CFC2204
:10021E0002016EE493A3F8E493A34003F68001F287
:10022E0008DFF48029E493A3F85407240CC8C333E1
:10023E00C4540F4420C8834004F456800146F6DFB0
:10024E00E4800B01020408102040809003DCE47E61
:10025E00019360BCA3FF543F30E509541FFEE493A5
:10026E00A360010ECF54C025E060A840B8E493A36C
:10027E00FAE493A3F8E493A3C8C582C8CAC583CA97
:10028E00F0A3C8C582C8CAC583CADFE9DEE780BE4F
:0103E4000018
:1000A00075F008758200EF2FFFEE33FECD33CDCC17
:1000B00033CCC58233C5829BED9AEC99E58298409A
:1000C0000CF582EE9BFEED9AFDEC99FC0FD5F0D677
:1000D000E4CEFBE4CDFAE4CCF9A88222B800C1B9A1
:1000E0000059BA002DEC8BF084CFCECDFCE5F0CBDF
:1000F000F97818EF2FFFEE33FEED33FDEC33FCEB18
:1001000033FB10D703994004EB99FB0FD8E5E4F9D2
:10011000FA227818EF2FFFEE33FEED33FDEC33FCBF
:10012000C933C910D7059BE99A4007EC9BFCE99AB3
:10013000F90FD8E0E4C9FAE4CCFB2275F010EF2FF8
:10014000FFEE33FEED33FDCC33CCC833C810D707F8
:100150009BEC9AE899400AED9BFDEC9AFCE899F833
:0E0160000FD5F0DAE4CDFBE4CCFAE4C8F922C6
:00000001FF
